{
  "contractName": "LandRegistry",
  "abi": [
    {
      "inputs": [
        {
          "internalType": "address",
          "name": "_defaultOwner",
          "type": "address"
        }
      ],
      "stateMutability": "nonpayable",
      "type": "constructor"
    },
    {
      "anonymous": false,
      "inputs": [
        {
          "indexed": true,
          "internalType": "string",
          "name": "titleDeedNumber",
          "type": "string"
        },
        {
          "indexed": true,
          "internalType": "address",
          "name": "owner",
          "type": "address"
        }
      ],
      "name": "LandRegistered",
      "type": "event"
    },
    {
      "anonymous": false,
      "inputs": [
        {
          "indexed": true,
          "internalType": "string",
          "name": "titleDeedNumber",
          "type": "string"
        },
        {
          "indexed": true,
          "internalType": "address",
          "name": "newOwner",
          "type": "address"
        }
      ],
      "name": "OwnershipTransferred",
      "type": "event"
    },
    {
      "inputs": [],
      "name": "defaultOwner",
      "outputs": [
        {
          "internalType": "address",
          "name": "",
          "type": "address"
        }
      ],
      "stateMutability": "view",
      "type": "function",
      "constant": true
    },
    {
      "inputs": [
        {
          "internalType": "string",
          "name": "",
          "type": "string"
        }
      ],
      "name": "lands",
      "outputs": [
        {
          "internalType": "string",
          "name": "titleDeedNumber",
          "type": "string"
        },
        {
          "internalType": "address",
          "name": "currentOwner",
          "type": "address"
        },
        {
          "internalType": "string",
          "name": "nationalId",
          "type": "string"
        },
        {
          "internalType": "bool",
          "name": "isRegistered",
          "type": "bool"
        }
      ],
      "stateMutability": "view",
      "type": "function",
      "constant": true
    },
    {
      "inputs": [
        {
          "internalType": "string",
          "name": "",
          "type": "string"
        }
      ],
      "name": "nationalIdToAddress",
      "outputs": [
        {
          "internalType": "address",
          "name": "",
          "type": "address"
        }
      ],
      "stateMutability": "view",
      "type": "function",
      "constant": true
    },
    {
      "inputs": [
        {
          "internalType": "address",
          "name": "",
          "type": "address"
        }
      ],
      "name": "owners",
      "outputs": [
        {
          "internalType": "string",
          "name": "",
          "type": "string"
        }
      ],
      "stateMutability": "view",
      "type": "function",
      "constant": true
    },
    {
      "inputs": [
        {
          "internalType": "string",
          "name": "_nationalId",
          "type": "string"
        }
      ],
      "name": "registerOwner",
      "outputs": [],
      "stateMutability": "nonpayable",
      "type": "function"
    },
    {
      "inputs": [
        {
          "internalType": "string",
          "name": "_titleDeedNumber",
          "type": "string"
        }
      ],
      "name": "registerLand",
      "outputs": [],
      "stateMutability": "nonpayable",
      "type": "function"
    },
    {
      "inputs": [
        {
          "internalType": "string",
          "name": "_titleDeedNumber",
          "type": "string"
        },
        {
          "internalType": "address",
          "name": "_newOwner",
          "type": "address"
        }
      ],
      "name": "transferOwnership",
      "outputs": [],
      "stateMutability": "nonpayable",
      "type": "function"
    },
    {
      "inputs": [
        {
          "internalType": "string",
          "name": "_titleDeedNumber",
          "type": "string"
        }
      ],
      "name": "getLandDetails",
      "outputs": [
        {
          "internalType": "address",
          "name": "currentOwner",
          "type": "address"
        },
        {
          "internalType": "string",
          "name": "nationalId",
          "type": "string"
        }
      ],
      "stateMutability": "view",
      "type": "function",
      "constant": true
    },
    {
      "inputs": [
        {
          "internalType": "string",
          "name": "_titleDeedNumber",
          "type": "string"
        }
      ],
      "name": "getLandHistory",
      "outputs": [
        {
          "components": [
            {
              "internalType": "string",
              "name": "previousOwnerId",
              "type": "string"
            },
            {
              "internalType": "address",
              "name": "newOwner",
              "type": "address"
            },
            {
              "internalType": "uint256",
              "name": "timestamp",
              "type": "uint256"
            }
          ],
          "internalType": "struct LandRegistry.TransactionHistory[]",
          "name": "",
          "type": "tuple[]"
        }
      ],
      "stateMutability": "view",
      "type": "function",
      "constant": true
    },
    {
      "inputs": [],
      "name": "getMyNationalId",
      "outputs": [
        {
          "internalType": "string",
          "name": "",
          "type": "string"
        }
      ],
      "stateMutability": "view",
      "type": "function",
      "constant": true
    },
    {
      "inputs": [],
      "name": "getAllRegisteredLands",
      "outputs": [
        {
          "internalType": "string[]",
          "name": "",
          "type": "string[]"
        }
      ],
      "stateMutability": "view",
      "type": "function",
      "constant": true
    }
  ],
  "bytecode": "0x608060405234801562000010575f80fd5b506040516200293d3803806200293d833981810160405281019062000036919062000231565b5f73ffffffffffffffffffffffffffffffffffffffff168173ffffffffffffffffffffffffffffffffffffffff1603620000a7576040517f08c379a00000000000000000000000000000000000000000000000000000000081526004016200009e90620002bf565b60405180910390fd5b8060045f6101000a81548173ffffffffffffffffffffffffffffffffffffffff021916908373ffffffffffffffffffffffffffffffffffffffff1602179055506040518060400160405280600881526020017f303030303030303000000000000000000000000000000000000000000000000081525060015f8373ffffffffffffffffffffffffffffffffffffffff1673ffffffffffffffffffffffffffffffffffffffff1681526020019081526020015f20908162000168919062000543565b508060026040516200017a906200067f565b90815260200160405180910390205f6101000a81548173ffffffffffffffffffffffffffffffffffffffff021916908373ffffffffffffffffffffffffffffffffffffffff1602179055505062000695565b5f80fd5b5f73ffffffffffffffffffffffffffffffffffffffff82169050919050565b5f620001fb82620001d0565b9050919050565b6200020d81620001ef565b811462000218575f80fd5b50565b5f815190506200022b8162000202565b92915050565b5f60208284031215620002495762000248620001cc565b5b5f62000258848285016200021b565b91505092915050565b5f82825260208201905092915050565b7f496e76616c69642064656661756c74206f776e657220616464726573730000005f82015250565b5f620002a7601d8362000261565b9150620002b48262000271565b602082019050919050565b5f6020820190508181035f830152620002d88162000299565b9050919050565b5f81519050919050565b7f4e487b71000000000000000000000000000000000000000000000000000000005f52604160045260245ffd5b7f4e487b71000000000000000000000000000000000000000000000000000000005f52602260045260245ffd5b5f60028204905060018216806200035b57607f821691505b60208210810362000371576200037062000316565b5b50919050565b5f819050815f5260205f209050919050565b5f6020601f8301049050919050565b5f82821b905092915050565b5f60088302620003d57fffffffffffffffffffffffffffffffffffffffffffffffffffffffffffffffff8262000398565b620003e1868362000398565b95508019841693508086168417925050509392505050565b5f819050919050565b5f819050919050565b5f6200042b620004256200041f84620003f9565b62000402565b620003f9565b9050919050565b5f819050919050565b62000446836200040b565b6200045e620004558262000432565b848454620003a4565b825550505050565b5f90565b6200047462000466565b620004818184846200043b565b505050565b5b81811015620004a8576200049c5f826200046a565b60018101905062000487565b5050565b601f821115620004f757620004c18162000377565b620004cc8462000389565b81016020851015620004dc578190505b620004f4620004eb8562000389565b83018262000486565b50505b505050565b5f82821c905092915050565b5f620005195f1984600802620004fc565b1980831691505092915050565b5f62000533838362000508565b9150826002028217905092915050565b6200054e82620002df565b67ffffffffffffffff8111156200056a5762000569620002e9565b5b62000576825462000343565b62000583828285620004ac565b5f60209050601f831160018114620005b9575f8415620005a4578287015190505b620005b0858262000526565b8655506200061f565b601f198416620005c98662000377565b5f5b82811015620005f257848901518255600182019150602085019450602081019050620005cb565b868310156200061257848901516200060e601f89168262000508565b8355505b6001600288020188555050505b505050505050565b5f81905092915050565b7f30303030303030300000000000000000000000000000000000000000000000005f82015250565b5f6200066760088362000627565b9150620006748262000631565b600882019050919050565b5f6200068b8262000659565b9150819050919050565b61229a80620006a35f395ff3fe608060405234801561000f575f80fd5b50600436106100a7575f3560e01c80639a2ae37c1161006f5780639a2ae37c14610163578063aa216bef14610194578063ae312296146101c4578063b1c8ad0d146101e2578063c0e793c214610215578063fbed216b14610231576100a7565b8063022914a7146100ab57806307872993146100db57806317de2f1f146100f95780634165c8ec146101175780638ca96de714610147575b5f80fd5b6100c560048036038101906100c09190611434565b61024d565b6040516100d291906114e9565b60405180910390f35b6100e36102e8565b6040516100f091906114e9565b60405180910390f35b61010161043e565b60405161010e9190611518565b60405180910390f35b610131600480360381019061012c919061165d565b610463565b60405161013e919061181b565b60405180910390f35b610161600480360381019061015c919061165d565b610639565b005b61017d6004803603810190610178919061165d565b610819565b60405161018b92919061183b565b60405180910390f35b6101ae60048036038101906101a9919061165d565b610964565b6040516101bb9190611518565b60405180910390f35b6101cc6109ac565b6040516101d99190611924565b60405180910390f35b6101fc60048036038101906101f7919061165d565b610a80565b60405161020c949392919061195e565b60405180910390f35b61022f600480360381019061022a91906119af565b610bfa565b005b61024b6004803603810190610246919061165d565b611165565b005b6001602052805f5260405f205f91509050805461026990611a36565b80601f016020809104026020016040519081016040528092919081815260200182805461029590611a36565b80156102e05780601f106102b7576101008083540402835291602001916102e0565b820191905f5260205f20905b8154815290600101906020018083116102c357829003601f168201915b505050505081565b60605f60015f3373ffffffffffffffffffffffffffffffffffffffff1673ffffffffffffffffffffffffffffffffffffffff1681526020019081526020015f20805461033390611a36565b905011610375576040517f08c379a000000000000000000000000000000000000000000000000000000000815260040161036c90611ad6565b60405180910390fd5b60015f3373ffffffffffffffffffffffffffffffffffffffff1673ffffffffffffffffffffffffffffffffffffffff1681526020019081526020015f2080546103bd90611a36565b80601f01602080910402602001604051908101604052809291908181526020018280546103e990611a36565b80156104345780601f1061040b57610100808354040283529160200191610434565b820191905f5260205f20905b81548152906001019060200180831161041757829003601f168201915b5050505050905090565b60045f9054906101000a900473ffffffffffffffffffffffffffffffffffffffff1681565b60605f826040516104749190611b2e565b90815260200160405180910390206004015f9054906101000a900460ff166104d1576040517f08c379a00000000000000000000000000000000000000000000000000000000081526004016104c890611b8e565b60405180910390fd5b5f826040516104e09190611b2e565b9081526020016040518091039020600301805480602002602001604051908101604052809291908181526020015f905b8282101561062e578382905f5260205f2090600302016040518060600160405290815f8201805461054090611a36565b80601f016020809104026020016040519081016040528092919081815260200182805461056c90611a36565b80156105b75780601f1061058e576101008083540402835291602001916105b7565b820191905f5260205f20905b81548152906001019060200180831161059a57829003601f168201915b50505050508152602001600182015f9054906101000a900473ffffffffffffffffffffffffffffffffffffffff1673ffffffffffffffffffffffffffffffffffffffff1673ffffffffffffffffffffffffffffffffffffffff16815260200160028201548152505081526020019060010190610510565b505050509050919050565b5f60015f3373ffffffffffffffffffffffffffffffffffffffff1673ffffffffffffffffffffffffffffffffffffffff1681526020019081526020015f20805461068290611a36565b9050146106c4576040517f08c379a00000000000000000000000000000000000000000000000000000000081526004016106bb90611bf6565b60405180910390fd5b5f73ffffffffffffffffffffffffffffffffffffffff166002826040516106eb9190611b2e565b90815260200160405180910390205f9054906101000a900473ffffffffffffffffffffffffffffffffffffffff1673ffffffffffffffffffffffffffffffffffffffff161461076f576040517f08c379a000000000000000000000000000000000000000000000000000000000815260040161076690611c5e565b60405180910390fd5b8060015f3373ffffffffffffffffffffffffffffffffffffffff1673ffffffffffffffffffffffffffffffffffffffff1681526020019081526020015f2090816107b99190611e19565b50336002826040516107cb9190611b2e565b90815260200160405180910390205f6101000a81548173ffffffffffffffffffffffffffffffffffffffff021916908373ffffffffffffffffffffffffffffffffffffffff16021790555050565b5f60605f8360405161082b9190611b2e565b90815260200160405180910390206004015f9054906101000a900460ff16610888576040517f08c379a000000000000000000000000000000000000000000000000000000000815260040161087f90611b8e565b60405180910390fd5b5f80846040516108989190611b2e565b90815260200160405180910390209050806001015f9054906101000a900473ffffffffffffffffffffffffffffffffffffffff16816002018080546108dc90611a36565b80601f016020809104026020016040519081016040528092919081815260200182805461090890611a36565b80156109535780601f1061092a57610100808354040283529160200191610953565b820191905f5260205f20905b81548152906001019060200180831161093657829003601f168201915b505050505090509250925050915091565b6002818051602081018201805184825260208301602085012081835280955050505050505f915054906101000a900473ffffffffffffffffffffffffffffffffffffffff1681565b60606003805480602002602001604051908101604052809291908181526020015f905b82821015610a77578382905f5260205f200180546109ec90611a36565b80601f0160208091040260200160405190810160405280929190818152602001828054610a1890611a36565b8015610a635780601f10610a3a57610100808354040283529160200191610a63565b820191905f5260205f20905b815481529060010190602001808311610a4657829003601f168201915b5050505050815260200190600101906109cf565b50505050905090565b5f818051602081018201805184825260208301602085012081835280955050505050505f91509050805f018054610ab690611a36565b80601f0160208091040260200160405190810160405280929190818152602001828054610ae290611a36565b8015610b2d5780601f10610b0457610100808354040283529160200191610b2d565b820191905f5260205f20905b815481529060010190602001808311610b1057829003601f168201915b505050505090806001015f9054906101000a900473ffffffffffffffffffffffffffffffffffffffff1690806002018054610b6790611a36565b80601f0160208091040260200160405190810160405280929190818152602001828054610b9390611a36565b8015610bde5780601f10610bb557610100808354040283529160200191610bde565b820191905f5260205f20905b815481529060010190602001808311610bc157829003601f168201915b505050505090806004015f9054906101000a900460ff16905084565b815f81604051610c0a9190611b2e565b90815260200160405180910390206004015f9054906101000a900460ff16610c67576040517f08c379a0000000000000000000000000000000000000000000000000000000008152600401610c5e90611f32565b60405180910390fd5b3373ffffffffffffffffffffffffffffffffffffffff165f82604051610c8d9190611b2e565b90815260200160405180910390206001015f9054906101000a900473ffffffffffffffffffffffffffffffffffffffff1673ffffffffffffffffffffffffffffffffffffffff1614610d14576040517f08c379a0000000000000000000000000000000000000000000000000000000008152600401610d0b90611f9a565b60405180910390fd5b5f60015f3373ffffffffffffffffffffffffffffffffffffffff1673ffffffffffffffffffffffffffffffffffffffff1681526020019081526020015f208054610d5d90611a36565b905011610d9f576040517f08c379a0000000000000000000000000000000000000000000000000000000008152600401610d9690611ad6565b60405180910390fd5b5f60015f8473ffffffffffffffffffffffffffffffffffffffff1673ffffffffffffffffffffffffffffffffffffffff1681526020019081526020015f208054610de890611a36565b905011610e2a576040517f08c379a0000000000000000000000000000000000000000000000000000000008152600401610e2190612002565b60405180910390fd5b5f73ffffffffffffffffffffffffffffffffffffffff168273ffffffffffffffffffffffffffffffffffffffff1603610e98576040517f08c379a0000000000000000000000000000000000000000000000000000000008152600401610e8f9061206a565b60405180910390fd5b3373ffffffffffffffffffffffffffffffffffffffff168273ffffffffffffffffffffffffffffffffffffffff1603610f06576040517f08c379a0000000000000000000000000000000000000000000000000000000008152600401610efd906120d2565b60405180910390fd5b5f8084604051610f169190611b2e565b908152602001604051809103902090505f816002018054610f3690611a36565b80601f0160208091040260200160405190810160405280929190818152602001828054610f6290611a36565b8015610fad5780601f10610f8457610100808354040283529160200191610fad565b820191905f5260205f20905b815481529060010190602001808311610f9057829003601f168201915b505050505090508160030160405180606001604052808381526020018673ffffffffffffffffffffffffffffffffffffffff16815260200142815250908060018154018082558091505060019003905f5260205f2090600302015f909190919091505f820151815f0190816110229190611e19565b506020820151816001015f6101000a81548173ffffffffffffffffffffffffffffffffffffffff021916908373ffffffffffffffffffffffffffffffffffffffff16021790555060408201518160020155505083826001015f6101000a81548173ffffffffffffffffffffffffffffffffffffffff021916908373ffffffffffffffffffffffffffffffffffffffff16021790555060015f8573ffffffffffffffffffffffffffffffffffffffff1673ffffffffffffffffffffffffffffffffffffffff1681526020019081526020015f208260020190816111049190612117565b508373ffffffffffffffffffffffffffffffffffffffff168560405161112a9190611b2e565b60405180910390207f6d82ace1ded9997251e5a150555aeb78d9d890a0d3170f41385af11b46c0973f60405160405180910390a35050505050565b5f60015f3373ffffffffffffffffffffffffffffffffffffffff1673ffffffffffffffffffffffffffffffffffffffff1681526020019081526020015f2080546111ae90611a36565b9050116111f0576040517f08c379a00000000000000000000000000000000000000000000000000000000081526004016111e790611ad6565b60405180910390fd5b5f816040516111ff9190611b2e565b90815260200160405180910390206004015f9054906101000a900460ff161561125d576040517f08c379a000000000000000000000000000000000000000000000000000000000815260040161125490612246565b60405180910390fd5b5f808260405161126d9190611b2e565b9081526020016040518091039020905081815f01908161128d9190611e19565b5033816001015f6101000a81548173ffffffffffffffffffffffffffffffffffffffff021916908373ffffffffffffffffffffffffffffffffffffffff16021790555060015f3373ffffffffffffffffffffffffffffffffffffffff1673ffffffffffffffffffffffffffffffffffffffff1681526020019081526020015f2081600201908161131d9190612117565b506001816004015f6101000a81548160ff021916908315150217905550600382908060018154018082558091505060019003905f5260205f20015f90919091909150908161136b9190611e19565b503373ffffffffffffffffffffffffffffffffffffffff16826040516113919190611b2e565b60405180910390207fdd0e63f6751705ba654d312cdb2d91e5c1ec84dcdec07b109b3d2d7a6cde75dd60405160405180910390a35050565b5f604051905090565b5f80fd5b5f80fd5b5f73ffffffffffffffffffffffffffffffffffffffff82169050919050565b5f611403826113da565b9050919050565b611413816113f9565b811461141d575f80fd5b50565b5f8135905061142e8161140a565b92915050565b5f60208284031215611449576114486113d2565b5b5f61145684828501611420565b91505092915050565b5f81519050919050565b5f82825260208201905092915050565b5f5b8381101561149657808201518184015260208101905061147b565b5f8484015250505050565b5f601f19601f8301169050919050565b5f6114bb8261145f565b6114c58185611469565b93506114d5818560208601611479565b6114de816114a1565b840191505092915050565b5f6020820190508181035f83015261150181846114b1565b905092915050565b611512816113f9565b82525050565b5f60208201905061152b5f830184611509565b92915050565b5f80fd5b5f80fd5b7f4e487b71000000000000000000000000000000000000000000000000000000005f52604160045260245ffd5b61156f826114a1565b810181811067ffffffffffffffff8211171561158e5761158d611539565b5b80604052505050565b5f6115a06113c9565b90506115ac8282611566565b919050565b5f67ffffffffffffffff8211156115cb576115ca611539565b5b6115d4826114a1565b9050602081019050919050565b828183375f83830152505050565b5f6116016115fc846115b1565b611597565b90508281526020810184848401111561161d5761161c611535565b5b6116288482856115e1565b509392505050565b5f82601f83011261164457611643611531565b5b81356116548482602086016115ef565b91505092915050565b5f60208284031215611672576116716113d2565b5b5f82013567ffffffffffffffff81111561168f5761168e6113d6565b5b61169b84828501611630565b91505092915050565b5f81519050919050565b5f82825260208201905092915050565b5f819050602082019050919050565b5f82825260208201905092915050565b5f6116e78261145f565b6116f181856116cd565b9350611701818560208601611479565b61170a816114a1565b840191505092915050565b61171e816113f9565b82525050565b5f819050919050565b61173681611724565b82525050565b5f606083015f8301518482035f86015261175682826116dd565b915050602083015161176b6020860182611715565b50604083015161177e604086018261172d565b508091505092915050565b5f611794838361173c565b905092915050565b5f602082019050919050565b5f6117b2826116a4565b6117bc81856116ae565b9350836020820285016117ce856116be565b805f5b8581101561180957848403895281516117ea8582611789565b94506117f58361179c565b925060208a019950506001810190506117d1565b50829750879550505050505092915050565b5f6020820190508181035f83015261183381846117a8565b905092915050565b5f60408201905061184e5f830185611509565b818103602083015261186081846114b1565b90509392505050565b5f81519050919050565b5f82825260208201905092915050565b5f819050602082019050919050565b5f61189d83836116dd565b905092915050565b5f602082019050919050565b5f6118bb82611869565b6118c58185611873565b9350836020820285016118d785611883565b805f5b8581101561191257848403895281516118f38582611892565b94506118fe836118a5565b925060208a019950506001810190506118da565b50829750879550505050505092915050565b5f6020820190508181035f83015261193c81846118b1565b905092915050565b5f8115159050919050565b61195881611944565b82525050565b5f6080820190508181035f83015261197681876114b1565b90506119856020830186611509565b818103604083015261199781856114b1565b90506119a6606083018461194f565b95945050505050565b5f80604083850312156119c5576119c46113d2565b5b5f83013567ffffffffffffffff8111156119e2576119e16113d6565b5b6119ee85828601611630565b92505060206119ff85828601611420565b9150509250929050565b7f4e487b71000000000000000000000000000000000000000000000000000000005f52602260045260245ffd5b5f6002820490506001821680611a4d57607f821691505b602082108103611a6057611a5f611a09565b5b50919050565b7f55736572206e6f7420726567697374657265642077697468204e6174696f6e615f8201527f6c20494400000000000000000000000000000000000000000000000000000000602082015250565b5f611ac0602483611469565b9150611acb82611a66565b604082019050919050565b5f6020820190508181035f830152611aed81611ab4565b9050919050565b5f81905092915050565b5f611b088261145f565b611b128185611af4565b9350611b22818560208601611479565b80840191505092915050565b5f611b398284611afe565b915081905092915050565b7f4c616e64206e6f7420666f756e640000000000000000000000000000000000005f82015250565b5f611b78600e83611469565b9150611b8382611b44565b602082019050919050565b5f6020820190508181035f830152611ba581611b6c565b9050919050565b7f416c7265616479207265676973746572656400000000000000000000000000005f82015250565b5f611be0601283611469565b9150611beb82611bac565b602082019050919050565b5f6020820190508181035f830152611c0d81611bd4565b9050919050565b7f4e6174696f6e616c20494420616c726561647920696e207573650000000000005f82015250565b5f611c48601a83611469565b9150611c5382611c14565b602082019050919050565b5f6020820190508181035f830152611c7581611c3c565b9050919050565b5f819050815f5260205f209050919050565b5f6020601f8301049050919050565b5f82821b905092915050565b5f60088302611cd87fffffffffffffffffffffffffffffffffffffffffffffffffffffffffffffffff82611c9d565b611ce28683611c9d565b95508019841693508086168417925050509392505050565b5f819050919050565b5f611d1d611d18611d1384611724565b611cfa565b611724565b9050919050565b5f819050919050565b611d3683611d03565b611d4a611d4282611d24565b848454611ca9565b825550505050565b5f90565b611d5e611d52565b611d69818484611d2d565b505050565b5b81811015611d8c57611d815f82611d56565b600181019050611d6f565b5050565b601f821115611dd157611da281611c7c565b611dab84611c8e565b81016020851015611dba578190505b611dce611dc685611c8e565b830182611d6e565b50505b505050565b5f82821c905092915050565b5f611df15f1984600802611dd6565b1980831691505092915050565b5f611e098383611de2565b9150826002028217905092915050565b611e228261145f565b67ffffffffffffffff811115611e3b57611e3a611539565b5b611e458254611a36565b611e50828285611d90565b5f60209050601f831160018114611e81575f8415611e6f578287015190505b611e798582611dfe565b865550611ee0565b601f198416611e8f86611c7c565b5f5b82811015611eb657848901518255600182019150602085019450602081019050611e91565b86831015611ed35784890151611ecf601f891682611de2565b8355505b6001600288020188555050505b505050505050565b7f4c616e64206e6f742072656769737465726564000000000000000000000000005f82015250565b5f611f1c601383611469565b9150611f2782611ee8565b602082019050919050565b5f6020820190508181035f830152611f4981611f10565b9050919050565b7f4e6f7420746865206f776e6572000000000000000000000000000000000000005f82015250565b5f611f84600d83611469565b9150611f8f82611f50565b602082019050919050565b5f6020820190508181035f830152611fb181611f78565b9050919050565b7f4e6577206f776e6572206d7573742062652072656769737465726564000000005f82015250565b5f611fec601c83611469565b9150611ff782611fb8565b602082019050919050565b5f6020820190508181035f83015261201981611fe0565b9050919050565b7f496e76616c6964206e6577206f776e65722061646472657373000000000000005f82015250565b5f612054601983611469565b915061205f82612020565b602082019050919050565b5f6020820190508181035f83015261208181612048565b9050919050565b7f43616e6e6f74207472616e7366657220746f2073656c660000000000000000005f82015250565b5f6120bc601783611469565b91506120c782612088565b602082019050919050565b5f6020820190508181035f8301526120e9816120b0565b9050919050565b5f815490506120fe81611a36565b9050919050565b5f819050815f5260205f209050919050565b8181036121255750506121fa565b61212e826120f0565b67ffffffffffffffff81111561214757612146611539565b5b6121518254611a36565b61215c828285611d90565b5f601f831160018114612189575f8415612177578287015490505b6121818582611dfe565b8655506121f3565b601f19841661219787612105565b96506121a286611c7c565b5f5b828110156121c9578489015482556001820191506001850194506020810190506121a4565b868310156121e657848901546121e2601f891682611de2565b8355505b6001600288020188555050505b5050505050505b565b7f4572726f723a204c616e6420616c7265616479207265676973746572656421005f82015250565b5f612230601f83611469565b915061223b826121fc565b602082019050919050565b5f6020820190508181035f83015261225d81612224565b905091905056fea2646970667358221220f96c1cb0a196211419b58b088577c4eb9b2f54fca840d6478c411199f183039e64736f6c63430008150033",
  "immutableReferences": {},
  "source": "// SPDX-License-Identifier: MIT\r\npragma solidity ^0.8.0;\r\n\r\ncontract LandRegistry {\r\n    struct TransactionHistory {\r\n        string previousOwnerId;\r\n        address newOwner;\r\n        uint256 timestamp;\r\n    }\r\n\r\n    struct Land {\r\n        string titleDeedNumber;\r\n        address currentOwner;\r\n        string nationalId;\r\n        TransactionHistory[] history;\r\n        bool isRegistered;\r\n    }\r\n\r\n    mapping(string => Land) public lands;\r\n    mapping(address => string) public owners;\r\n    mapping(string => address) public nationalIdToAddress;\r\n    string[] private registeredLands; // Array to store registered land title deed numbers\r\n\r\n    event LandRegistered(\r\n        string indexed titleDeedNumber,\r\n        address indexed owner\r\n    );\r\n    event OwnershipTransferred(\r\n        string indexed titleDeedNumber,\r\n        address indexed newOwner\r\n    );\r\n\r\n    modifier onlyLandOwner(string memory _titleDeedNumber) {\r\n        require(lands[_titleDeedNumber].isRegistered, \"Land not registered\");\r\n        require(\r\n            lands[_titleDeedNumber].currentOwner == msg.sender,\r\n            \"Not the owner\"\r\n        );\r\n        _;\r\n    }\r\n\r\n    modifier onlyVerifiedOwner() {\r\n        require(\r\n            bytes(owners[msg.sender]).length > 0,\r\n            \"User not registered with National ID\"\r\n        );\r\n        _;\r\n    }\r\n\r\n    address public defaultOwner;\r\n\r\n    constructor(address _defaultOwner) {\r\n        require(_defaultOwner != address(0), \"Invalid default owner address\");\r\n        defaultOwner = _defaultOwner;\r\n        owners[_defaultOwner] = \"00000000\";\r\n        nationalIdToAddress[\"00000000\"] = _defaultOwner;\r\n    }\r\n\r\n    function registerOwner(string memory _nationalId) public {\r\n        require(bytes(owners[msg.sender]).length == 0, \"Already registered\");\r\n        require(\r\n            nationalIdToAddress[_nationalId] == address(0),\r\n            \"National ID already in use\"\r\n        );\r\n\r\n        owners[msg.sender] = _nationalId;\r\n        nationalIdToAddress[_nationalId] = msg.sender;\r\n    }\r\n\r\n    function registerLand(string memory _titleDeedNumber) public onlyVerifiedOwner {\r\n    require(!lands[_titleDeedNumber].isRegistered, \"Error: Land already registered!\");\r\n\r\n    Land storage newLand = lands[_titleDeedNumber];\r\n    newLand.titleDeedNumber = _titleDeedNumber;\r\n    newLand.currentOwner = msg.sender;\r\n    newLand.nationalId = owners[msg.sender];\r\n    newLand.isRegistered = true;\r\n\r\n    registeredLands.push(_titleDeedNumber);\r\n\r\n    emit LandRegistered(_titleDeedNumber, msg.sender);\r\n}\r\n\r\n\r\n    function transferOwnership(\r\n        string memory _titleDeedNumber,\r\n        address _newOwner\r\n    ) public onlyLandOwner(_titleDeedNumber) onlyVerifiedOwner {\r\n        require(\r\n            bytes(owners[_newOwner]).length > 0,\r\n            \"New owner must be registered\"\r\n        );\r\n        require(_newOwner != address(0), \"Invalid new owner address\");\r\n        require(_newOwner != msg.sender, \"Cannot transfer to self\");\r\n\r\n        Land storage land = lands[_titleDeedNumber];\r\n        string memory previousOwnerId = land.nationalId;\r\n\r\n        land.history.push(\r\n            TransactionHistory({\r\n                previousOwnerId: previousOwnerId,\r\n                newOwner: _newOwner,\r\n                timestamp: block.timestamp\r\n            })\r\n        );\r\n\r\n        land.currentOwner = _newOwner;\r\n        land.nationalId = owners[_newOwner];\r\n\r\n        emit OwnershipTransferred(_titleDeedNumber, _newOwner);\r\n    }\r\n\r\n    function getLandDetails(\r\n        string memory _titleDeedNumber\r\n    ) public view returns (address currentOwner, string memory nationalId) {\r\n        require(lands[_titleDeedNumber].isRegistered, \"Land not found\");\r\n        Land storage land = lands[_titleDeedNumber];\r\n        return (land.currentOwner, land.nationalId);\r\n    }\r\n\r\n    function getLandHistory(\r\n        string memory _titleDeedNumber\r\n    ) public view returns (TransactionHistory[] memory) {\r\n        require(lands[_titleDeedNumber].isRegistered, \"Land not found\");\r\n        return lands[_titleDeedNumber].history;\r\n    }\r\n\r\n    function getMyNationalId()\r\n        public\r\n        view\r\n        onlyVerifiedOwner\r\n        returns (string memory)\r\n    {\r\n        return owners[msg.sender];\r\n    }\r\n\r\n    function getAllRegisteredLands() public view returns (string[] memory) {\r\n        return registeredLands;\r\n    }\r\n}\r\n",
  "sourcePath": "C:\\Users\\keen\\Downloads\\PROPCHAIN\\contracts\\LandRegistry.sol",
  "compiler": {
    "name": "solc",
    "version": "0.8.21+commit.d9974bed.Emscripten.clang"
  },
  "schemaVersion": "3.4.16",
  "updatedAt": "2025-03-25T05:58:33.933Z",
  "networkType": "ethereum",
  "devdoc": {
    "kind": "dev",
    "methods": {},
    "version": 1
  },
  "userdoc": {
    "kind": "user",
    "methods": {},
    "version": 1
  }
}